{
  "contractName": "RecordService",
  "abi": [
    {
      "inputs": [],
      "payable": false,
      "stateMutability": "nonpayable",
      "type": "constructor",
      "signature": "constructor"
    },
    {
      "anonymous": false,
      "inputs": [
        {
          "indexed": false,
          "name": "id",
          "type": "uint256"
        },
        {
          "indexed": false,
          "name": "owner",
          "type": "address"
        },
        {
          "indexed": false,
          "name": "ipfsCid",
          "type": "string"
        },
        {
          "indexed": false,
          "name": "repoId",
          "type": "uint256"
        },
        {
          "indexed": false,
          "name": "index",
          "type": "uint256"
        },
        {
          "indexed": false,
          "name": "eventType",
          "type": "string"
        }
      ],
      "name": "RecordEvent",
      "type": "event",
      "signature": "0x8d93ecaa4319f0a4b84b7f7460973ecb6f4bbcef4dfb148a42f44c869eaea1ef"
    },
    {
      "constant": false,
      "inputs": [
        {
          "name": "_repoId",
          "type": "uint256"
        },
        {
          "name": "_ipfsCid",
          "type": "string"
        }
      ],
      "name": "create",
      "outputs": [
        {
          "name": "id",
          "type": "uint256"
        }
      ],
      "payable": false,
      "stateMutability": "nonpayable",
      "type": "function",
      "signature": "0x0118fa49"
    },
    {
      "constant": true,
      "inputs": [
        {
          "name": "_repoId",
          "type": "uint256"
        },
        {
          "name": "_id",
          "type": "uint256"
        }
      ],
      "name": "read",
      "outputs": [
        {
          "name": "id",
          "type": "uint256"
        },
        {
          "name": "owner",
          "type": "address"
        },
        {
          "name": "ipfsCid",
          "type": "string"
        },
        {
          "name": "repoId",
          "type": "uint256"
        },
        {
          "name": "index",
          "type": "uint256"
        }
      ],
      "payable": false,
      "stateMutability": "view",
      "type": "function",
      "signature": "0x75080997"
    },
    {
      "constant": false,
      "inputs": [
        {
          "name": "_repoId",
          "type": "uint256"
        },
        {
          "name": "_id",
          "type": "uint256"
        },
        {
          "name": "_ipfsCid",
          "type": "string"
        }
      ],
      "name": "update",
      "outputs": [],
      "payable": false,
      "stateMutability": "nonpayable",
      "type": "function",
      "signature": "0xd753fd25"
    },
    {
      "constant": true,
      "inputs": [
        {
          "name": "_repoId",
          "type": "uint256"
        }
      ],
      "name": "count",
      "outputs": [
        {
          "name": "theCount",
          "type": "uint256"
        }
      ],
      "payable": false,
      "stateMutability": "view",
      "type": "function",
      "signature": "0x3b3546c8"
    },
    {
      "constant": true,
      "inputs": [
        {
          "name": "_repoId",
          "type": "uint256"
        },
        {
          "name": "_index",
          "type": "uint256"
        }
      ],
      "name": "readByIndex",
      "outputs": [
        {
          "name": "id",
          "type": "uint256"
        },
        {
          "name": "owner",
          "type": "address"
        },
        {
          "name": "ipfsCid",
          "type": "string"
        },
        {
          "name": "repoId",
          "type": "uint256"
        },
        {
          "name": "index",
          "type": "uint256"
        }
      ],
      "payable": false,
      "stateMutability": "view",
      "type": "function",
      "signature": "0x5a24fb94"
    }
  ],
  "bytecode": "0x608060405234801561001057600080fd5b50336000806101000a81548173ffffffffffffffffffffffffffffffffffffffff021916908373ffffffffffffffffffffffffffffffffffffffff1602179055506113b3806100606000396000f3fe60806040526004361061006d576000357c0100000000000000000000000000000000000000000000000000000000900463ffffffff1680630118fa49146100725780633b3546c8146101165780635a24fb9414610165578063750809971461026b578063d753fd2514610371575b600080fd5b34801561007e57600080fd5b506101006004803603604081101561009557600080fd5b8101908080359060200190929190803590602001906401000000008111156100bc57600080fd5b8201836020820111156100ce57600080fd5b803590602001918460018302840111640100000000831117156100f057600080fd5b909192939192939050505061040b565b6040518082815260200191505060405180910390f35b34801561012257600080fd5b5061014f6004803603602081101561013957600080fd5b810190808035906020019092919050505061094d565b6040518082815260200191505060405180910390f35b34801561017157600080fd5b506101a86004803603604081101561018857600080fd5b8101908080359060200190929190803590602001909291905050506109eb565b604051808681526020018573ffffffffffffffffffffffffffffffffffffffff1673ffffffffffffffffffffffffffffffffffffffff16815260200180602001848152602001838152602001828103825285818151815260200191508051906020019080838360005b8381101561022c578082015181840152602081019050610211565b50505050905090810190601f1680156102595780820380516001836020036101000a031916815260200191505b50965050505050505060405180910390f35b34801561027757600080fd5b506102ae6004803603604081101561028e57600080fd5b810190808035906020019092919080359060200190929190505050610bb4565b604051808681526020018573ffffffffffffffffffffffffffffffffffffffff1673ffffffffffffffffffffffffffffffffffffffff16815260200180602001848152602001838152602001828103825285818151815260200191508051906020019080838360005b83811015610332578082015181840152602081019050610317565b50505050905090810190601f16801561035f5780820380516001836020036101000a031916815260200191505b50965050505050505060405180910390f35b34801561037d57600080fd5b506104096004803603606081101561039457600080fd5b810190808035906020019092919080359060200190929190803590602001906401000000008111156103c557600080fd5b8201836020820111156103d757600080fd5b803590602001918460018302840111640100000000831117156103f957600080fd5b9091929391929390505050610e29565b005b60003373ffffffffffffffffffffffffffffffffffffffff166000809054906101000a900473ffffffffffffffffffffffffffffffffffffffff1673ffffffffffffffffffffffffffffffffffffffff161415156104d1576040517f08c379a00000000000000000000000000000000000000000000000000000000081526004018080602001828103825260118152602001807f5065726d697373696f6e2064656e69656400000000000000000000000000000081525060200191505060405180910390fd5b6000841415151561054a576040517f08c379a00000000000000000000000000000000000000000000000000000000081526004018080602001828103825260168152602001807f596f75206d75737420737570706c792061207265706f0000000000000000000081525060200191505060405180910390fd5b6000838390501115156105c5576040517f08c379a000000000000000000000000000000000000000000000000000000000815260040180806020018281038252601a8152602001807f596f75206d75737420737570706c7920616e206970667343696400000000000081525060200191505060405180910390fd5b60036000815480929190600101919050555060006001600086815260200190815260200160002090506105f661121c565b60a06040519081016040528060035481526020013373ffffffffffffffffffffffffffffffffffffffff16815260200186868080601f016020809104026020016040519081016040528093929190818152602001838380828437600081840152601f19601f820116905080830192505050505050508152602001878152602001838054905081525090508060026000836000015181526020019081526020016000206000820151816000015560208201518160010160006101000a81548173ffffffffffffffffffffffffffffffffffffffff021916908373ffffffffffffffffffffffffffffffffffffffff1602179055506040820151816002019080519060200190610705929190611262565b50606082015181600301556080820151816004015590505081816000015190806001815401808255809150509060018203906000526020600020016000909192909190915055507f8d93ecaa4319f0a4b84b7f7460973ecb6f4bbcef4dfb148a42f44c869eaea1ef600260008360000151815260200190815260200160002060000154600260008460000151815260200190815260200160002060010160009054906101000a900473ffffffffffffffffffffffffffffffffffffffff166002600085600001518152602001908152602001600020600201600260008660000151815260200190815260200160002060030154600260008760000151815260200190815260200160002060040154604051808681526020018573ffffffffffffffffffffffffffffffffffffffff1673ffffffffffffffffffffffffffffffffffffffff16815260200180602001848152602001838152602001806020018381038352868181546001816001161561010002031660029004815260200191508054600181600116156101000203166002900480156108e45780601f106108b9576101008083540402835291602001916108e4565b820191906000526020600020905b8154815290600101906020018083116108c757829003601f168201915b5050838103825260038152602001807f4e4557000000000000000000000000000000000000000000000000000000000081525060200197505050505050505060405180910390a16002600084815260200190815260200160002060000154925050509392505050565b60008082141515156109c7576040517f08c379a00000000000000000000000000000000000000000000000000000000081526004018080602001828103825260168152602001807f596f75206d75737420737570706c792061207265706f0000000000000000000081525060200191505060405180910390fd5b60006001600084815260200190815260200160002090508080549050915050919050565b600080606060008060008714151515610a6c576040517f08c379a00000000000000000000000000000000000000000000000000000000081526004018080602001828103825260168152602001807f596f75206d75737420737570706c792061207265706f0000000000000000000081525060200191505060405180910390fd5b6000600160008981526020019081526020016000209050808054905087101515610afe576040517f08c379a00000000000000000000000000000000000000000000000000000000081526004018080602001828103825260128152602001807f4e6f207265636f726420617420696e646578000000000000000000000000000081525060200191505060405180910390fd5b60008188815481101515610b0e57fe5b9060005260206000200154905060008110151515610b94576040517f08c379a00000000000000000000000000000000000000000000000000000000081526004018080602001828103825260138152602001807f496e76616c696420696420617420696e6465780000000000000000000000000081525060200191505060405180910390fd5b610b9e8982610bb4565b9650965096509650965050509295509295909350565b600080606060008060008714151515610c35576040517f08c379a00000000000000000000000000000000000000000000000000000000081526004018080602001828103825260168152602001807f596f75206d75737420737570706c792061207265706f0000000000000000000081525060200191505060405180910390fd5b60008614151515610cae576040517f08c379a00000000000000000000000000000000000000000000000000000000081526004018080602001828103825260158152602001807f596f75206d75737420737570706c7920616e206964000000000000000000000081525060200191505060405180910390fd5b6000600260008881526020019081526020016000209050878160030154141515610d40576040517f08c379a000000000000000000000000000000000000000000000000000000000815260040180806020018281038252600f8152602001807f4e6f207265636f726420666f756e64000000000000000000000000000000000081525060200191505060405180910390fd5b80600001548160010160009054906101000a900473ffffffffffffffffffffffffffffffffffffffff168260020183600301548460040154828054600181600116156101000203166002900480601f016020809104026020016040519081016040528092919081815260200182805460018160011615610100020316600290048015610e0d5780601f10610de257610100808354040283529160200191610e0d565b820191906000526020600020905b815481529060010190602001808311610df057829003601f168201915b5050505050925095509550955095509550509295509295909350565b60006002600085815260200190815260200160002090503373ffffffffffffffffffffffffffffffffffffffff168160010160009054906101000a900473ffffffffffffffffffffffffffffffffffffffff1673ffffffffffffffffffffffffffffffffffffffff16141515610f07576040517f08c379a00000000000000000000000000000000000000000000000000000000081526004018080602001828103825260198152602001807f596f7520646f6e2774206f776e2074686973207265636f72640000000000000081525060200191505060405180910390fd5b848160030154141515610f82576040517f08c379a000000000000000000000000000000000000000000000000000000000815260040180806020018281038252600f8152602001807f4e6f207265636f726420666f756e64000000000000000000000000000000000081525060200191505060405180910390fd5b600083839050111515610ffd576040517f08c379a000000000000000000000000000000000000000000000000000000000815260040180806020018281038252601a8152602001807f596f75206d75737420737570706c7920616e206970667343696400000000000081525060200191505060405180910390fd5b8282604051808383808284378083019250505092505050604051809103902081600201604051808280546001816001161561010002031660029004801561107b5780601f1061105957610100808354040283529182019161107b565b820191906000526020600020905b815481529060010190602001808311611067575b505091505060405180910390201415156112155782828260020191906110a29291906112e2565b507f8d93ecaa4319f0a4b84b7f7460973ecb6f4bbcef4dfb148a42f44c869eaea1ef81600001548260010160009054906101000a900473ffffffffffffffffffffffffffffffffffffffff168360020184600301548560040154604051808681526020018573ffffffffffffffffffffffffffffffffffffffff1673ffffffffffffffffffffffffffffffffffffffff16815260200180602001848152602001838152602001806020018381038352868181546001816001161561010002031660029004815260200191508054600181600116156101000203166002900480156111cd5780601f106111a2576101008083540402835291602001916111cd565b820191906000526020600020905b8154815290600101906020018083116111b057829003601f168201915b5050838103825260068152602001807f555044415445000000000000000000000000000000000000000000000000000081525060200197505050505050505060405180910390a15b5050505050565b60a06040519081016040528060008152602001600073ffffffffffffffffffffffffffffffffffffffff1681526020016060815260200160008152602001600081525090565b828054600181600116156101000203166002900490600052602060002090601f016020900481019282601f106112a357805160ff19168380011785556112d1565b828001600101855582156112d1579182015b828111156112d05782518255916020019190600101906112b5565b5b5090506112de9190611362565b5090565b828054600181600116156101000203166002900490600052602060002090601f016020900481019282601f1061132357803560ff1916838001178555611351565b82800160010185558215611351579182015b82811115611350578235825591602001919060010190611335565b5b50905061135e9190611362565b5090565b61138491905b80821115611380576000816000905550600101611368565b5090565b9056fea165627a7a7230582058bb6efdbb1707b31463f43b309ce7a182ca99abd0b0456579d6c10d88f3e82d0029",
  "source": "pragma solidity ^0.5.0;\n\n/**\n * Note: \n * I'm naming this RecordService because I think naming these things \"Contract\" is an artifact \n * that will quickly disappear once more and more apps start to appear. Naming this \"RecordContract\"\n * would be like naming all of your Java classes \"StudentClass\" and \"DatabaseClass\". \n * \n * We know it's a contract because of the contract keyword. \n */\ncontract RecordService {\n\n    address serviceOwner;\n\n    struct Record {\n        uint256 id;\n        address owner;\n        string ipfsCid;\n        uint repoId;\n        uint256 index;\n    }\n\n    event RecordEvent (\n        uint256 id,\n        address owner,\n        string ipfsCid,\n        uint repoId,\n        uint256 index,\n        string eventType\n    );\n\n\n    constructor() public {\n        serviceOwner = msg.sender;\n    }\n\n    //\n    /**\n     * Map between repoId and the array that holds the indexes for it.\n     * \n     * The uint is the repoId and the uint256[] is an array cointaining\n     * the ids of records held in that repo. The ids in each index are \n     * ordered by when they were created.\n     */\n    mapping(uint => uint256[]) private repoIdIndexesMapping;\n\n    //Records are ultimately stored mapped by their id.\n    mapping(uint256 => Record) private recordMapping;\n\n    uint256 nextId;\n\n    function create(uint _repoId, string calldata _ipfsCid) external returns (uint256 id) {\n        \n        require(serviceOwner == msg.sender, \"Permission denied\");\n        require(_repoId != 0, \"You must supply a repo\"); //need unit test\n        require(bytes(_ipfsCid).length > 0, \"You must supply an ipfsCid\");//need unit test\n\n        nextId++;\n\n        //Get the existing indexes for this repo\n        uint256[] storage repoIndex = repoIdIndexesMapping[_repoId];\n\n        Record memory record = Record({\n            id : nextId,\n            owner: msg.sender,\n            ipfsCid : _ipfsCid,\n            index: repoIndex.length,\n            repoId: _repoId\n        });\n\n        //Put item in mapping\n        recordMapping[record.id] = record;\n\n\n        //Put id in index\n        repoIndex.push(record.id);\n\n\n        emit RecordEvent(\n            recordMapping[record.id].id,\n            recordMapping[record.id].owner,\n            recordMapping[record.id].ipfsCid,\n            recordMapping[record.id].repoId,\n            recordMapping[record.id].index,\n            \"NEW\"\n        );\n\n\n        return recordMapping[id].id;\n    }\n\n    function read(uint _repoId, uint256 _id) public view returns (uint256 id, address owner, string memory ipfsCid, uint repoId, uint256 index ) {\n\n        require(_repoId != 0, \"You must supply a repo\"); //need unit test\n        require(_id != 0, \"You must supply an id\");//need unit test\n\n        Record storage record = recordMapping[_id];\n\n        require(record.repoId == _repoId, \"No record found\"); //Need unit test\n\n        return (record.id, record.owner, record.ipfsCid, record.repoId, record.index);\n    }\n\n    function update(uint _repoId, uint256 _id, string calldata _ipfsCid) external {\n\n        Record storage record = recordMapping[_id];\n\n        require(record.owner == msg.sender, \"You don't own this record\");\n        require(record.repoId == _repoId, \"No record found\"); //Need unit test\n        require(bytes(_ipfsCid).length > 0, \"You must supply an ipfsCid\"); //need unit test\n\n\n        if (keccak256(bytes(record.ipfsCid)) != keccak256(bytes(_ipfsCid))) {\n            record.ipfsCid = _ipfsCid;\n\n            emit RecordEvent(\n                record.id,\n                record.owner,\n                record.ipfsCid,\n                record.repoId,\n                record.index,\n                \"UPDATE\"\n            );   \n        }\n    }\n\n\n    //Paging functionality\n    function count(uint _repoId) external view returns (uint256 theCount) {\n        require(_repoId != 0, \"You must supply a repo\"); //need unit test\n\n        uint256[] storage repoIndex = repoIdIndexesMapping[_repoId]; //unit test before adding a record\n        return repoIndex.length;\n    }\n\n    function readByIndex(uint _repoId, uint256 _index) external view returns (uint256 id, address owner, string memory ipfsCid, uint repoId, uint256 index) {\n        \n        require(_repoId != 0, \"You must supply a repo\"); //need unit test\n        uint256[] storage repoIndex = repoIdIndexesMapping[_repoId]; //unit test before adding a record\n\n        require(_index < repoIndex.length, \"No record at index\");\n\n        uint256 idAtIndex = repoIndex[_index];\n\n        require(idAtIndex >= 0, \"Invalid id at index\");\n\n        return read(_repoId, idAtIndex);\n    }\n\n}\n\n\n",
  "sourcePath": "/home/ptoner/repos/freedom-for-data/contracts/RecordService.sol",
  "compiler": {
    "name": "solc",
    "version": "0.5.0+commit.1d4f565a.Emscripten.clang"
  },
  "schemaVersion": "3.0.0-beta.2",
  "updatedAt": "2018-12-06T21:13:17.638Z",
  "devdoc": {
    "methods": {}
  },
  "userdoc": {
    "methods": {},
    "notice": "Note:  I'm naming this RecordService because I think naming these things \"Contract\" is an artifact  that will quickly disappear once more and more apps start to appear. Naming this \"RecordContract\" would be like naming all of your Java classes \"StudentClass\" and \"DatabaseClass\".   * We know it's a contract because of the contract keyword. "
  }
}